:10000000926A936807EC00F00FEC00F01200896A26
:100010008A6A2CEC00F0040E046F895E120016EC64
:1000200000F015EC00F00FEF00F012008ACF08F09E
:10003000081D0715096F08C007F0096721EC00F0DB
:10004000120009B1031F09B30A1F09B5000009B75F
:10005000000009B900001200110E016F006BFA0ECA
:10006000026F070E896E003F33EF00F00107FBE1DE
:08007000023F33EF00F0120023
:04FFFC0000EF00F022
:020000040030CA
:0300010006181EC0
:020005008181F7
:060008000FC00FE00F40E5
:00000001FF
