:10000000926A936807EC00F014EC00F01200896A21
:100010008A6A3EEC00F0040E046F895E1200010E45
:10002000E806E806E806120004C00BF00B07FEE045
:1000300014EF00F012008ACF08F0081D0715096FB1
:1000400008C007F0096726EC00F0120009B1031F91
:1000500009B30A1F09B534EC00F009B738EC00F019
:1000600009B93BEC00F01200040E046F0B5F1200A4
:100070000B07040712000B2B042B1200110E016F4B
:10008000006BFA0E026F070E896E003F45EF00F01D
:0C0090000107FBE1023F45EF00F0120009
:04FFFC0000EF00F022
:020000040030CA
:0300010006181EC0
:020005008181F7
:060008000FC00FE00F40E5
:00000001FF
