:10000000926A936809EC00F010EC00F03DEC00F00F
:100010001200060E056F010E0C6F9CEC00F0120032
:10002000896A8A6A006B016B026B046B0B6B0A6B4B
:100030000C6B056B066B076B086B096B036B070E8C
:10004000896EB3EC00F0896A040E056F1200DF0EB2
:10005000016F050E006F003F2BEF00F0013F29EF0D
:1000600000F012000BB137EF00F03AEF00F00A0E8B
:10007000036F1200140E036F120005C00CF089828A
:10008000898032EC00F05BEC00F027EC00F0030715
:10009000FAE132EC00F089B289928990140E036F74
:1000A0005BEC00F027EC00F00307FAE10C07E8E155
:1000B0003DEF00F0120081CF09F0091D08150A6F0D
:1000C00009C008F00A678BEC00F0120081CF09F03C
:1000D000091D08150A6F09C008F00A6771EC00F0E5
:1000E00012000AB104710AB30B1F0AB59CEC00F0B0
:1000F0000AB7ADEC00F00AB9B0EC00F01200040E43
:10010000896E27EC00F066EC00F004B17FEF00F0A0
:10011000030E896E12000AB104710AB30B710AB59D
:100120009CEC00F00AB7ADEC00F00AB9B0EC00F0BE
:1001300004B17FEC00F012000C51055F040E056164
:10014000A9EF00F0A4EF00F0055705C00CF0056F13
:1001500012000C6B0C2B056F12000C070507120028
:100160000C2B052B1200110E016F006BFA0E026FA3
:10017000003FB8EF00F00107FBE1023FB8EF00F0ED
:0201800012006B
:04FFFC0000EF00F022
:020000040030CA
:0300010006181EC0
:020005008181F7
:060008000FC00FE00F40E5
:00000001FF
