:10000000926A936807EC00F034EC00F01200896A01
:100010008A6A006B016B026B046B0B6B0A6B0C6BD7
:10002000056B066B076B086B096B036B070E896E1C
:10003000A8EC00F0896A040E056F1200DF0E016F54
:10004000050E006F003F22EF00F0013F20EF00F0AF
:1000500012000BB12EEF00F031EF00F00A0E036F2B
:100060001200140E036F120005C00CF08982898003
:1000700029EC00F050EC00F01EEC00F00307FAE170
:1000800029EC00F089B28992899050EC00F01EECC6
:1000900000F00307FAE10C07EAE134EF00F0120088
:1000A00081CF09F0091D08150A6F09C008F00A6719
:1000B00080EC00F0120081CF09F0091D08150A6FCD
:1000C00009C008F00A6766EC00F012000AB104717A
:1000D0000AB30B1F0AB591EC00F00AB7A2EC00F0CE
:1000E0000AB9A5EC00F01200040E896E1EEC00F0B7
:1000F0005BEC00F004B174EF00F0030E896E1200A7
:100100000AB104710AB30B710AB591EC00F00AB799
:10011000A2EC00F00AB9A5EC00F004B174EC00F018
:1001200012000C51055F040E05619EEF00F099EF7F
:1001300000F0055705C00CF0056F12000C6B0C2B7E
:10014000056F12000C07050712000C2B052B12007F
:10015000110E016F006BFA0E026F003FADEF00F061
:0C0160000107FBE1023FADEF00F01200D0
:04FFFC0000EF00F022
:020000040030CA
:0300010006181EC0
:020005008181F7
:060008000FC00FE00F40E5
:00000001FF
