:10000000926A936807EC00F035EC00F01200896A00
:100010008A6A816A006B016B026B046B0B6B0A6B63
:100020000C6B056B066B076B086B096B036B070E9C
:10003000896EA9EC00F0896A040E056F1200DF0ECC
:10004000016F9C0E006F003F23EF00F0013F21EF96
:1000500000F012000BB12FEF00F032EF00F0190E9C
:10006000036F1200320E036F120005C00CF089827C
:1000700089802AEC00F051EC00F01FEC00F003073F
:10008000FAE12AEC00F089B28992899051EC00F0F3
:100090001FEC00F00307FAE10C07EAE135EF00F08E
:1000A000120081CF09F0091D08150A6F09C008F078
:1000B0000A6781EC00F0120081CF09F0091D0815D4
:1000C0000A6F09C008F00A6767EC00F012000AB175
:1000D00004710AB30B1F0AB592EC00F00AB7A3EC47
:1000E00000F00AB9A6EC00F01200040E896E1FECB5
:1000F00000F05CEC00F004B175EF00F0030E896EC7
:1001000012000AB104710AB30B710AB592EC00F047
:100110000AB7A3EC00F00AB9A6EC00F004B175EC44
:1001200000F012000C51055F040E05619FEF00F016
:100130009AEF00F0055705C00CF0056F12000C6B2C
:100140000C2B056F12000C07050712000C2B052B5A
:100150001200110E016F006BFA0E026F003FAEEF3E
:0E01600000F00107FBE1023FAEEF00F01200DD
:04FFFC0000EF00F022
:020000040030CA
:0300010006181EC0
:020005008181F7
:060008000FC00FE00F40E5
:00000001FF
